:100000000C942A000C9489010C94B2010C94DB012D
:100010000C9447000C9447000C9447000C94470044
:100020000C9447000C9447000C9447000C94470034
:100030000C9447000C9447000C9447000C94470024
:100040000C9447000C9447000C9447000C94470014
:100050000C94470011241FBECFE5D8E0DEBFCDBF12
:1000600010E0A0E6B0E0E8EAF9E002C005900D92E9
:10007000AA38B107D9F720E0AAE8B0E001C01D9284
:10008000A139B207E1F70E948E040C94D2040C94BB
:10009000000080E00E943A0149E450E063E080E023
:1000A0000E945A0178948091600081508093600092
:1000B00080E00E94280281E00E94280282E00E94E3
:1000C00028028091600081110FC00E94280281E007
:1000D0000E94280282E00E94280280918A008130DA
:1000E00089F160F1823081F180E00E941602109265
:1000F0008A0080E090916000891740F180E00E94C2
:10010000280281E00E94160281E080938A0080E04C
:1001100090916000891728F181E00E94280282E016
:100120000E94160282E080938A0080E09091600035
:10013000891710F182E00E942802D6CF80E00E9449
:100140001602D2CF81E0FBCF82E0F9CF2FEF33EC64
:1001500099E0215030409040E1F700C000008F5FEF
:10016000C9CF2FEF33EC99E0215030409040E1F7B8
:1001700000C000008F5FCCCF2FEF33EC99E021500F
:1001800030409040E1F700C000008F5FCFCF41309A
:1001900091F018F0423029F10895E82FF0E0EE0FC9
:1001A000FF1FEF58FF4F0190F081E02D8081609597
:1001B00068236083089590E0880F991FFC01EF5831
:1001C000FF4F0190F081E02D3081262F20952323D1
:1001D000208387599F4FDC01ED91FC918081682B32
:1001E000E8CFE82FF0E0EE0FFF1FEF58FF4F019030
:1001F000F081E02DF3CF442319F0413079F00895D8
:10020000E82FF0E0EE0FFF1FE759FF4F0190F0815C
:10021000E02D80816095682360830895E82FF0E0E9
:10022000EE0FFF1FE759FF4F0190F081E02D808115
:10023000682BF2CFE82FF0E0EE0FFF1FE759FF4FDA
:100240000190F081E02D8081682760830895E82F78
:10025000F0E0EE0FFF1FEF59FF4F0190F081E02D0E
:100260008081682319F4FA011082089581E0FA016F
:1002700080830895813041F018F0823041F0089574
:100280008BB780648BBF08958BB78068FBCF8BB72B
:100290008062F8CF813041F018F0823041F008954B
:1002A0008BB78F7B8BBF08958BB78F77FBCF8BB7C7
:1002B0008F7DF8CF813079F018F08230D9F0089531
:1002C00085B78C7F85BF85B7682B65BF509390003D
:1002D00040938F00089585B7837F85BF85B794E0ED
:1002E000699FB0011124682B65BF50938E00409325
:1002F0008D000895633041F484B7806484BF5093C7
:100300008C0040938B0008956230C9F784B78F7BCF
:10031000F5CF1F920F920FB60F9211242F933F9398
:100320004F935F936F937F938F939F93AF93BF93FD
:10033000EF93FF93E0918F00F0919000309709F0D8
:100340000995FF91EF91BF91AF919F918F917F910F
:100350006F915F914F913F912F910F900FBE0F9032
:100360001F9018951F920F920FB60F9211242F9382
:100370003F934F935F936F937F938F939F93AF932D
:10038000BF93EF93FF93E0918D00F0918E00309733
:1003900009F00995FF91EF91BF91AF919F918F91D6
:1003A0007F916F915F914F913F912F910F900FBE71
:1003B0000F901F9018951F920F920FB60F92112455
:1003C0002F933F934F935F936F937F938F939F935D
:1003D000AF93BF93EF93FF93E0918B00F0918C006C
:1003E000309709F00995FF91EF91BF91AF919F91DF
:1003F0008F917F916F915F914F913F912F910F90CE
:100400000FBE0F901F901895813049F018F0823080
:1004100049F0089542E064E082E00C94C70042E0B5
:1004200060E8FACF42E068E083E0F7CF813049F03E
:1004300018F0823049F0089541E064E082E00C94C5
:10044000FB0041E060E8FACF41E068E083E0F7CFED
:10045000813049F018F0823049F0089540E064E0BE
:1004600082E00C94FB0040E060E8FACF40E068E0F6
:1004700083E0F7CF813041F018F0823039F00895F1
:1004800064E082E00C941A0160E8FBCF68E083E04E
:10049000F9CF813049F018F0823051F0089540E0F2
:1004A00061E081E00C94C70040E060E483E0FACFB3
:1004B00040E064E0FBCFAB01813041F018F08230C6
:1004C00041F0089561E081E00C94270160E483E04D
:1004D000FBCF64E0FCCFCF93C82F42E060E180E027
:1004E0000E94C70042E060E280E00E94C70042E054
:1004F00060E480E00E94C70042E060E880E00E9483
:10050000C700CC2321F0C13041F0CF91089542E0E3
:1005100064E081E0CF910C94C70042E062E0F9CF43
:10052000882319F0813031F0089541E064E081E0E2
:100530000C94FB0041E062E0FACF882319F081308F
:1005400031F0089540E064E081E00C94FB0040E06D
:1005500062E0FACFCF938A30F0F4C82F482F417071
:1005600060E180E00E94FB00C1FB442740F960E2AB
:1005700080E00E94FB00C2FB442740F960E480E079
:100580000E94FB004C2F46954695469560E880E01A
:10059000CF910C94FB00CF910895CF93C82F40E0EA
:1005A00062E081E00E94FB0040E064E081E00E94A4
:1005B000FB00C4FB442740F960E180E00E94FB009F
:1005C000C5FB442740F960E280E00E94FB00C6FBC7
:1005D000442740F960E480E00E94FB004C2F441F58
:1005E0004427441F60E880E00E94FB0040E068E090
:1005F00081E00E94FB0087EC90E00197F1F700C0DA
:10060000000041E068E081E00E94FB004C2F417057
:1006100060E180E00E94FB00C1FB442740F960E2FA
:1006200080E00E94FB00C2FB442740F960E480E0C8
:100630000E94FB00C3FB442740F960E880E00E9471
:10064000FB0040E068E081E00E94FB0087EC90E066
:100650000197F1F700C0000041E068E081E0CF9130
:100660000C94FB00CF93C82F41E062E081E00E9430
:10067000FB0040E064E081E00E94FB00C4FB4427F3
:1006800040F960E180E00E94FB00C5FB442740F98F
:1006900060E280E00E94FB00C6FB442740F960E472
:1006A00080E00E94FB004C2F441F4427441F60E859
:1006B00080E00E94FB0040E068E081E00E94FB00D7
:1006C00087EC90E00197F1F700C0000041E068E09E
:1006D00081E00E94FB004C2F417060E180E00E94AD
:1006E000FB00C1FB442740F960E280E00E94FB0070
:1006F000C2FB442740F960E480E00E94FB00C3FB9A
:10070000442740F960E880E00E94FB0040E068E098
:1007100081E00E94FB0087EC90E00197F1F700C0B8
:10072000000041E068E081E0CF910C94FB0042E0E2
:100730006EE081E00E94C70042E060EF80E00E942E
:10074000C70041E068E081E00E94FB002FEF80E7F6
:1007500092E0215080409040E1F700C0000040E06E
:1007600060E180E00E94FB0041E060E280E00E94E6
:10077000FB0040E060E480E00E94FB0040E060E8B5
:1007800080E00E94FB0040E068E081E00E94FB0006
:1007900087EC90E00197F1F700C0000041E068E0CD
:1007A00081E00E94FB008CE20E94CD028FE99FE075
:1007B0000197F1F700C000008FE00E94CD028FE9A1
:1007C0009FE00197F1F700C0000081E00E94CD0298
:1007D0008FE39FE10197F1F700C0000086E00E94DF
:1007E000CD028FE99FE00197F1F700C00000089566
:1007F0000C943203CF93DF93EC018991811103C0F4
:10080000DF91CF9108950E943203F7CF6068862B65
:100810000C94CD0241E06FE083E00E94C70042E00B
:1008200060EF83E00E94C70041E060EF83E00C943A
:10083000FB006F927F928F929F92AF92BF92CF9266
:10084000DF92EF92FF920F931F93CF93DF931F924C
:10085000CDB7DEB76C01FC011082F12CE12C90E1E8
:10086000692E712C88248394912C53010E2C01C085
:10087000AA0C0A94EAF740E06A2D83E00E94FB008C
:1008800010E000E0AE014F5F5F4FB401002E01C0E9
:10089000660F0A94EAF783E00E942701898181119B
:1008A00036C0FFEF22E587E0F15020408040E1F7BD
:1008B00000C00000F801EE0FFF1FEE0FFF1FE7580A
:1008C000FF4FEE0DFF1D8081F601808341E06A2D10
:1008D00083E00E94FB00F6018081811108C0FFEFD8
:1008E000EF1AFF0A24E0E216F10409F0BECF0F90E0
:1008F000DF91CF911F910F91FF90EF90DF90CF90FC
:10090000BF90AF909F908F907F906F9008950F5FF2
:100910001F4F0430110509F0B5CFD8CF80E00E94F9
:10092000040281E00E94040282E00E94040282E04C
:100930000E94490280E00E943A0149E450E063E0ED
:1009400080E00E945A01789480E00E9416022FEF06
:1009500083ED90E3215080409040E1F700C000001B
:1009600080E00E94280281E00E9416022FEF83EDB2
:1009700090E3215080409040E1F700C0000081E00A
:100980000E94280282E00E9416022FEF83ED90E37E
:10099000215080409040E1F700C0000082E00E94BA
:0809A0002802D2CFF894FFCF2A
:1009A8000539003600330030003B0038003500328E
:1009B800003A003700340031003738392F343536E3
:0A09C800783132332D4F303D2B0003
:00000001FF
