:100000000C942A000C9447000C9447000C94470071
:100010000C9447000C9447000C9447000C94470044
:100020000C9447000C9447000C9447000C94470034
:100030000C9447000C9447000C9447000C94470024
:100040000C9447000C9447000C9447000C94470014
:100050000C94470011241FBECFE5D8E0DEBFCDBF12
:1000600010E0A0E6B0E0E2E2F9E002C005900D92F7
:10007000A838B107D9F720E0A8E8B0E001C01D9288
:10008000A639B207E1F70E9405040C948F040C9482
:1000900000001092890010928800EAE8F0E01082D7
:1000A000118212821382E0E9F0E010821182138241
:1000B00014820895CF93DF9380918F008D3299F150
:1000C00040F48B32F9F08AE890E0DF91CF910C9404
:1000D0006E038F32C9F18837B1F780E990E00E9452
:1000E0003404EC0183E990E00E9434044AE06AE8B9
:1000F00070E09C01C29FC001C39F900DD29F900DE4
:1001000011240EC080E990E00E943404EC0183E9E0
:1001100090E00E9434044AE06AE870E08C0F9D1F72
:100120000E945204D0CF80E990E00E943404EC0198
:1001300083E990E00E9434044AE06AE870E09E019E
:10014000281B390BC901ECCF80E990E00E943404F0
:10015000EC0183E990E00E943404BC01CE010E94CE
:100160000C04CB014AE06AE870E0DACF8EE890E058
:100170000E94900380918E008F3471F40E947E0360
:100180000E9449002FEF81EE94E021508040904082
:10019000E1F700C0000008958D3339F46CE080E48D
:1001A0000E947A030E945A00EBCF982F9B7F9B32CC
:1001B00021F08D3211F0883771F40E946C03809128
:1001C0008E0080938F00809189008F5F80938900DB
:1001D00010928800D7CF8823A9F20E946C038091E7
:1001E0008800E09189002E2F30E0F901EE0FFF1F0B
:1001F000E20FF31FE057FF4FE80FF11D90918E00C3
:1002000090838F5F80938800BDCF413091F018F0CC
:10021000423029F10895E82FF0E0EE0FFF1FE0597A
:10022000FF4F0190F081E02D80816095682360830D
:10023000089590E0880F991FFC01E059FF4F01904D
:10024000F081E02D3081262F2095232320838859AB
:100250009F4FDC01ED91FC918081682BE8CFE82F66
:10026000F0E0EE0FFF1FE059FF4F0190F081E02D0D
:10027000F3CF442319F0413079F00895E82FF0E0EE
:10028000EE0FFF1FE859FF4F0190F081E02D8081B4
:100290006095682360830895E82FF0E0EE0FFF1F5C
:1002A000E859FF4F0190F081E02D8081682BF2CF5B
:1002B000E82FF0E0EE0FFF1FE859FF4F0190F081AB
:1002C000E02D8081682760830895E82FF0E0EE0F2D
:1002D000FF1FE05AFF4F0190F081E02D80816823DD
:1002E00019F4FA011082089581E0FA0180830895DB
:1002F000813049F018F0823049F0089542E064E01E
:1003000082E00C94050142E060E8FACF42E068E048
:1003100083E0F7CF813049F018F0823049F008953A
:1003200041E064E082E00C94390141E060E8FACFFA
:1003300041E068E083E0F7CF813049F018F0823087
:1003400049F0089540E064E082E00C94390140E017
:1003500060E8FACF40E068E083E0F7CF813041F019
:1003600018F0823039F0089564E082E00C9458016E
:1003700060E8FBCF68E083E0F9CF813049F018F006
:10038000823051F0089540E061E081E00C94050175
:1003900040E060E483E0FACF40E064E0FBCFAB01F3
:1003A000813041F018F0823041F0089561E081E041
:1003B0000C94650160E483E0FBCF64E0FCCFCF9355
:1003C000C82F42E060E180E00E94050142E060E267
:1003D00080E00E94050142E060E480E00E940501A7
:1003E00042E060E880E00E940501CC2321F0C130AA
:1003F00041F0CF91089542E064E081E0CF910C9408
:10040000050142E062E0F9CF882319F0813031F034
:10041000089541E064E081E00C94390141E062E03C
:10042000FACF882319F0813031F0089540E064E07C
:1004300081E00C94390140E062E0FACFCF938A303A
:10044000F0F4C82F482F417060E180E00E9439012C
:10045000C1FB442740F960E280E00E943901C2FB01
:10046000442740F960E480E00E9439014C2F469512
:100470004695469560E880E0CF910C943901CF9184
:100480000895CF93C82F40E062E081E00E943901D7
:1004900040E064E081E00E943901C4FB442740F958
:1004A00060E180E00E943901C5FB442740F960E229
:1004B00080E00E943901C6FB442740F960E480E0F7
:1004C0000E9439014C2F441F4427441F60E880E0FC
:1004D0000E94390140E068E081E00E94390187EC28
:1004E00090E00197F1F700C0000041E068E081E092
:1004F0000E9439014C2F417060E180E00E94390177
:10050000C1FB442740F960E280E00E943901C2FB50
:10051000442740F960E480E00E943901C3FB44278E
:1005200040F960E880E00E94390140E068E081E045
:100530000E94390187EC90E00197F1F700C00000BC
:1005400041E068E081E0CF910C943901CF93C82F4E
:1005500041E062E081E00E94390140E064E081E036
:100560000E943901C4FB442740F960E180E00E9409
:100570003901C5FB442740F960E280E00E9439015F
:10058000C6FB442740F960E480E00E9439014C2F0B
:10059000441F4427441F60E880E00E94390140E086
:1005A00068E081E00E94390187EC90E00197F1F763
:1005B00000C0000041E068E081E00E9439014C2F5A
:1005C000417060E180E00E943901C1FB442740F99D
:1005D00060E280E00E943901C2FB442740F960E4F8
:1005E00080E00E943901C3FB442740F960E880E0C5
:1005F0000E94390140E068E081E00E94390187EC07
:1006000090E00197F1F700C0000041E068E081E070
:10061000CF910C94390142E06EE081E00E94050127
:1006200042E060EF80E00E94050141E068E081E087
:100630000E9439012FEF80E792E0215080409040E6
:10064000E1F700C0000040E060E180E00E94390175
:1006500041E060E280E00E94390140E060E480E037
:100660000E94390140E060E880E00E94390140E0EA
:1006700068E081E00E94390187EC90E00197F1F792
:1006800000C0000041E068E081E00E9439018CE296
:100690000E9441028FE99FE00197F1F700C000003E
:1006A0008FE00E9441028FE99FE00197F1F700C0BF
:1006B000000081E00E9441028FE39FE10197F1F782
:1006C00000C0000086E00E9441028FE99FE0019790
:1006D000F1F700C0000008950C94A602CF93DF93B9
:1006E000EC018991811103C0DF91CF9108950E949F
:1006F000A602F7CF6068862B0C94410281E00C942F
:10070000410241E06FE083E00E94050142E060EFBA
:1007100083E00E94050141E060EF83E00C94390121
:100720006F927F928F929F92AF92BF92CF92DF9201
:10073000EF92FF920F931F93CF93DF931F92CDB74A
:10074000DEB76C01FC011082F12CE12C90E1692EE6
:10075000712C88248394912C53010E2C01C0AA0C77
:100760000A94EAF740E06A2D83E00E94390110E024
:1007700000E0AE014F5F5F4FB401002E01C0660F75
:100780000A94EAF783E00E9465018981811136C0ED
:10079000FFEF22E587E0F15020408040E1F700C004
:1007A0000000F801EE0FFF1FEE0FFF1FE858FF4F8C
:1007B000EE0DFF1D8081F601808341E06A2D83E00C
:1007C0000E943901F6018081811108C0FFEFEF1A04
:1007D000FF0A24E0E216F10409F0BECF0F90DF918A
:1007E000CF911F910F91FF90EF90DF90CF90BF902E
:1007F000AF909F908F907F906F9008950F5F1F4FE5
:100800000430110509F0B5CFD8CF0E9481030E94B2
:100810000B030E94B600FDCF97FB072E16F4009441
:1008200007D077FD09D00E94200407FC05D03EF4D4
:10083000909581959F4F0895709561957F4F08958C
:10084000AA1BBB1B51E107C0AA1FBB1FA617B707F6
:1008500010F0A61BB70B881F991F5A95A9F7809512
:100860009095BC01CD010895FC0188279927E89453
:1008700021912032E9F3293010F02E30C8F32B32C9
:1008800041F02D3239F4689404C00E945D04820F57
:10089000911D219120532A30C0F31EF4909581952B
:1008A0009F4F0895BB274A3031F4992322F4BDE2CB
:1008B000909581959F4F0C9466047AE0979F902DB8
:1008C000879F802D910D11240895BB27FB0155278B
:1008D000AA27880F991FAA1FA41710F0A41B83959D
:1008E0005051B9F7A05DAA3308F0A95DA193009714
:1008F00079F7B111B1931192CB010C947F04DC0113
:10090000FC01672F71917723E1F7329704C07C9146
:100910006D9370836291AE17BF07C8F30895F89482
:02092000FFCF07
:1009220039003600330030003B0038003500320019
:100932003A003700340031003738392F34353678F1
:080942003132332D4F303D2B03
:00000001FF
