:100000000C942A000C9447000C9447000C94470071
:100010000C9447000C9447000C9447000C94470044
:100020000C9447000C9447000C9447000C94470034
:100030000C9447000C9447000C9447000C94470024
:100040000C9447000C9447000C9447000C94470014
:100050000C94470011241FBECFE5D8E0DEBFCDBF12
:1000600010E0A0E6B0E0EAEBF5E002C005900D92EA
:10007000A837B107D9F720E0A8E7B0E001C01D928A
:10008000AD37B207E1F70E94C1020C94DB020C9479
:1000900000006AE770E080E00E944F026BE770E0CA
:1000A00081E00E944F026CE770E082E00C944F0206
:1000B0000E94490080917A00811107C080917B00E5
:1000C000811103C080917C00811108950E94490034
:1000D00080E00E948402809179000E949E028FE35A
:1000E0009CE90197F1F700C0000080E00E949102B6
:1000F00081E00E948402809178000E949E028FE33A
:100100009CE90197F1F700C0000081E00E94910294
:10011000D1CF80917A0090917B0020917C00811159
:1001200005C0911103C02223E1F1892F813009F02C
:1001300068C082E08093790080E00E940A02C3E3F5
:1001400080E00E94840283E00E949E028FE39CE98B
:100150000197F1F700C0000080E00E94910281E069
:100160000E94840280E00E949E028FE39CE9019736
:10017000F1F700C0000081E00E949102C15001F738
:10018000D9E0D09378008091780087FF0DC08091EE
:100190007900811132C00E941C020E9458000E9406
:1001A00089000E944900B5CFC3E380E00E94840229
:1001B000809179000E949E028FE39CE90197F1F7FC
:1001C00000C0000080E00E94910281E00E94840251
:1001D000809178000E949E028FE39CE90197F1F7DD
:1001E00000C0000081E00E949102C150F1F68091B0
:1001F0007800815080937800C6CF81508093790039
:10020000C0CF913009F046C085E08093790081E04D
:100210000E940A0210927800809178008A306CF077
:1002200080917900893091F581E00E941C028091D3
:100230007800815080937800B0CFC3E380E00E94C3
:100240008402809179000E949E028FE39CE90197CD
:10025000F1F700C0000080E00E94910281E00E945E
:100260008402809178000E949E028FE39CE90197AE
:10027000F1F700C0000081E00E949102C150F1F648
:10028000809178008F5F80937800C6CF8F5F8093D6
:100290007900C0CF213009F049CF1092790082E077
:1002A0000E940A0210927800809178008A306CF0E7
:1002B00080917900833091F582E00E941C021092B7
:1002C000780084E08093790068CFC2E380E00E94E8
:1002D0008402809179000E949E028FE39CE901973D
:1002E000F1F700C0000080E00E94910281E00E94CE
:1002F0008402809178000E949E028FE39CE901971E
:10030000F1F700C0000081E00E949102C150F1F6B7
:10031000809178008F5F80937800C6CF8F5F809345
:100320007900C0CF413091F018F04230D9F00895F3
:10033000E82FF0E0EE0FFF1FE059FF4F0190F08132
:10034000E02D80816095682360830895E82FF0E0B8
:10035000EE0FFF1FE859FF4F0190F081E02D8081E3
:10036000682BF2CFE82FF0E0EE0FFF1FE059FF4FB0
:10037000F3CF442319F0413079F00895E82FF0E0ED
:10038000EE0FFF1FE859FF4F0190F081E02D8081B3
:100390006095682360830895E82FF0E0EE0FFF1F5B
:1003A000E859FF4F0190F081E02D8081682BF2CF5A
:1003B000E82FF0E0EE0FFF1FE859FF4F0190F081AA
:1003C000E02D8081682760830895E82FF0E0EE0F2C
:1003D000FF1FE05AFF4F0190F081E02D80816823DC
:1003E00019F4FA011082089581E0FA0180830895DA
:1003F000813049F018F0823049F0089542E064E01D
:1004000082E00C94920142E060E8FACF42E068E0BA
:1004100083E0F7CF813049F018F0823049F0089539
:1004200041E064E082E00C94B90141E060E8FACF79
:1004300041E068E083E0F7CF813049F018F0823086
:1004400049F0089540E064E082E00C94B90140E096
:1004500060E8FACF40E068E083E0F7CF813041F018
:1004600018F0823039F0089564E082E00C94D801ED
:1004700060E8FBCF68E083E0F9CF813049F018F005
:10048000823051F0089540E061E081E00C949201E7
:1004900040E060E483E0FACF40E064E0FBCFAB01F2
:1004A000813041F018F0823041F0089561E081E040
:1004B0000C94E50160E483E0FBCF64E0FCCFCF93D4
:1004C000C82F42E060E180E00E94920142E060E2D9
:1004D00080E00E94920142E060E480E00E9492018C
:1004E00042E060E880E00E949201CC2321F0C1301C
:1004F00041F0CF91089542E064E081E0CF910C9407
:10050000920142E062E0F9CF882319F0813031F0A6
:10051000089541E064E081E00C94B90141E062E0BB
:10052000FACF882319F0813031F0089540E064E07B
:1005300081E00C94B90140E062E0FACFCF938A30B9
:10054000F0F4C82F482F417060E180E00E94B901AB
:10055000C1FB442740F960E280E00E94B901C2FB80
:10056000442740F960E480E00E94B9014C2F469591
:100570004695469560E880E0CF910C94B901CF9103
:10058000089580E00E945F0281E00E945F0280E0A7
:100590000E94F80181E00E94F80182E00E94F801C7
:1005A00080E00E943D0281E00E943D0282E00E94C4
:0A05B0003D020E948900F894FFCF7D
:1005BA0039003600330030003B0038003500320085
:0805CA003A0037003400310053
:00000001FF
